{
  "_format": "hh-sol-artifact-1",
  "contractName": "T3MarketplaceContract",
  "sourceName": "contracts/T3MarketplaceContract.sol",
  "abi": [
    {
      "inputs": [
        {
          "internalType": "address",
          "name": "usdcAddress",
          "type": "address"
        }
      ],
      "stateMutability": "nonpayable",
      "type": "constructor"
    },
    {
      "anonymous": false,
      "inputs": [
        {
          "indexed": true,
          "internalType": "address",
          "name": "owner",
          "type": "address"
        },
        {
          "indexed": true,
          "internalType": "address",
          "name": "approved",
          "type": "address"
        },
        {
          "indexed": true,
          "internalType": "uint256",
          "name": "tokenId",
          "type": "uint256"
        }
      ],
      "name": "Approval",
      "type": "event"
    },
    {
      "anonymous": false,
      "inputs": [
        {
          "indexed": true,
          "internalType": "address",
          "name": "owner",
          "type": "address"
        },
        {
          "indexed": true,
          "internalType": "address",
          "name": "operator",
          "type": "address"
        },
        {
          "indexed": false,
          "internalType": "bool",
          "name": "approved",
          "type": "bool"
        }
      ],
      "name": "ApprovalForAll",
      "type": "event"
    },
    {
      "anonymous": false,
      "inputs": [
        {
          "indexed": false,
          "internalType": "uint256",
          "name": "_fromTokenId",
          "type": "uint256"
        },
        {
          "indexed": false,
          "internalType": "uint256",
          "name": "_toTokenId",
          "type": "uint256"
        }
      ],
      "name": "BatchMetadataUpdate",
      "type": "event"
    },
    {
      "anonymous": false,
      "inputs": [
        {
          "indexed": false,
          "internalType": "uint256",
          "name": "_tokenId",
          "type": "uint256"
        }
      ],
      "name": "MetadataUpdate",
      "type": "event"
    },
    {
      "anonymous": false,
      "inputs": [
        {
          "indexed": true,
          "internalType": "address",
          "name": "seller",
          "type": "address"
        },
        {
          "indexed": true,
          "internalType": "address",
          "name": "buyer",
          "type": "address"
        },
        {
          "indexed": true,
          "internalType": "uint256",
          "name": "tokenId",
          "type": "uint256"
        },
        {
          "indexed": false,
          "internalType": "string",
          "name": "tokenUri",
          "type": "string"
        },
        {
          "indexed": false,
          "internalType": "uint256",
          "name": "price",
          "type": "uint256"
        }
      ],
      "name": "NFTBought",
      "type": "event"
    },
    {
      "anonymous": false,
      "inputs": [
        {
          "indexed": true,
          "internalType": "address",
          "name": "creator",
          "type": "address"
        },
        {
          "indexed": false,
          "internalType": "string",
          "name": "tokenUri",
          "type": "string"
        },
        {
          "indexed": false,
          "internalType": "uint256",
          "name": "tokenId",
          "type": "uint256"
        }
      ],
      "name": "NFTCreated",
      "type": "event"
    },
    {
      "anonymous": false,
      "inputs": [
        {
          "indexed": true,
          "internalType": "address",
          "name": "seller",
          "type": "address"
        },
        {
          "indexed": true,
          "internalType": "uint256",
          "name": "tokenId",
          "type": "uint256"
        },
        {
          "indexed": false,
          "internalType": "uint256",
          "name": "price",
          "type": "uint256"
        },
        {
          "indexed": false,
          "internalType": "string",
          "name": "tokenUri",
          "type": "string"
        }
      ],
      "name": "NFTListed",
      "type": "event"
    },
    {
      "anonymous": false,
      "inputs": [
        {
          "indexed": true,
          "internalType": "address",
          "name": "creator",
          "type": "address"
        },
        {
          "indexed": true,
          "internalType": "address",
          "name": "receiver",
          "type": "address"
        },
        {
          "indexed": false,
          "internalType": "string",
          "name": "tokenUri",
          "type": "string"
        },
        {
          "indexed": false,
          "internalType": "uint256",
          "name": "tokenId",
          "type": "uint256"
        }
      ],
      "name": "NFTTransferred",
      "type": "event"
    },
    {
      "anonymous": false,
      "inputs": [
        {
          "indexed": true,
          "internalType": "address",
          "name": "seller",
          "type": "address"
        },
        {
          "indexed": true,
          "internalType": "uint256",
          "name": "tokenId",
          "type": "uint256"
        },
        {
          "indexed": false,
          "internalType": "string",
          "name": "tokenUri",
          "type": "string"
        }
      ],
      "name": "NFTUnlisted",
      "type": "event"
    },
    {
      "anonymous": false,
      "inputs": [
        {
          "indexed": true,
          "internalType": "address",
          "name": "from",
          "type": "address"
        },
        {
          "indexed": true,
          "internalType": "address",
          "name": "to",
          "type": "address"
        },
        {
          "indexed": true,
          "internalType": "uint256",
          "name": "tokenId",
          "type": "uint256"
        }
      ],
      "name": "Transfer",
      "type": "event"
    },
    {
      "inputs": [],
      "name": "_tokenIds",
      "outputs": [
        {
          "internalType": "uint256",
          "name": "_value",
          "type": "uint256"
        }
      ],
      "stateMutability": "view",
      "type": "function"
    },
    {
      "inputs": [
        {
          "internalType": "address",
          "name": "to",
          "type": "address"
        },
        {
          "internalType": "uint256",
          "name": "tokenId",
          "type": "uint256"
        }
      ],
      "name": "approve",
      "outputs": [],
      "stateMutability": "nonpayable",
      "type": "function"
    },
    {
      "inputs": [
        {
          "internalType": "address",
          "name": "owner",
          "type": "address"
        }
      ],
      "name": "balanceOf",
      "outputs": [
        {
          "internalType": "uint256",
          "name": "",
          "type": "uint256"
        }
      ],
      "stateMutability": "view",
      "type": "function"
    },
    {
      "inputs": [
        {
          "internalType": "uint256",
          "name": "tokenId",
          "type": "uint256"
        },
        {
          "internalType": "uint256",
          "name": "_amount",
          "type": "uint256"
        }
      ],
      "name": "buy",
      "outputs": [],
      "stateMutability": "nonpayable",
      "type": "function"
    },
    {
      "inputs": [
        {
          "internalType": "uint256",
          "name": "tokenId",
          "type": "uint256"
        }
      ],
      "name": "getApproved",
      "outputs": [
        {
          "internalType": "address",
          "name": "",
          "type": "address"
        }
      ],
      "stateMutability": "view",
      "type": "function"
    },
    {
      "inputs": [
        {
          "internalType": "address",
          "name": "owner",
          "type": "address"
        },
        {
          "internalType": "address",
          "name": "operator",
          "type": "address"
        }
      ],
      "name": "isApprovedForAll",
      "outputs": [
        {
          "internalType": "bool",
          "name": "",
          "type": "bool"
        }
      ],
      "stateMutability": "view",
      "type": "function"
    },
    {
      "inputs": [
        {
          "internalType": "uint256",
          "name": "tokenId",
          "type": "uint256"
        },
        {
          "internalType": "uint256",
          "name": "price",
          "type": "uint256"
        }
      ],
      "name": "listNft",
      "outputs": [],
      "stateMutability": "nonpayable",
      "type": "function"
    },
    {
      "inputs": [
        {
          "internalType": "uint256",
          "name": "",
          "type": "uint256"
        }
      ],
      "name": "listedNFT",
      "outputs": [
        {
          "internalType": "bool",
          "name": "",
          "type": "bool"
        }
      ],
      "stateMutability": "view",
      "type": "function"
    },
    {
      "inputs": [],
      "name": "name",
      "outputs": [
        {
          "internalType": "string",
          "name": "",
          "type": "string"
        }
      ],
      "stateMutability": "view",
      "type": "function"
    },
    {
      "inputs": [
        {
          "internalType": "uint256",
          "name": "tokenId",
          "type": "uint256"
        }
      ],
      "name": "ownerOf",
      "outputs": [
        {
          "internalType": "address",
          "name": "",
          "type": "address"
        }
      ],
      "stateMutability": "view",
      "type": "function"
    },
    {
      "inputs": [
        {
          "internalType": "uint256",
          "name": "",
          "type": "uint256"
        }
      ],
      "name": "priceofNFT",
      "outputs": [
        {
          "internalType": "uint256",
          "name": "",
          "type": "uint256"
        }
      ],
      "stateMutability": "view",
      "type": "function"
    },
    {
      "inputs": [
        {
          "internalType": "uint256",
          "name": "tokenId",
          "type": "uint256"
        }
      ],
      "name": "removeListing",
      "outputs": [],
      "stateMutability": "nonpayable",
      "type": "function"
    },
    {
      "inputs": [
        {
          "internalType": "address",
          "name": "to",
          "type": "address"
        },
        {
          "internalType": "string",
          "name": "uri",
          "type": "string"
        }
      ],
      "name": "safeMint",
      "outputs": [],
      "stateMutability": "nonpayable",
      "type": "function"
    },
    {
      "inputs": [
        {
          "internalType": "address",
          "name": "from",
          "type": "address"
        },
        {
          "internalType": "address",
          "name": "to",
          "type": "address"
        },
        {
          "internalType": "uint256",
          "name": "tokenId",
          "type": "uint256"
        }
      ],
      "name": "safeTransferFrom",
      "outputs": [],
      "stateMutability": "nonpayable",
      "type": "function"
    },
    {
      "inputs": [
        {
          "internalType": "address",
          "name": "from",
          "type": "address"
        },
        {
          "internalType": "address",
          "name": "to",
          "type": "address"
        },
        {
          "internalType": "uint256",
          "name": "tokenId",
          "type": "uint256"
        },
        {
          "internalType": "bytes",
          "name": "data",
          "type": "bytes"
        }
      ],
      "name": "safeTransferFrom",
      "outputs": [],
      "stateMutability": "nonpayable",
      "type": "function"
    },
    {
      "inputs": [
        {
          "internalType": "address",
          "name": "operator",
          "type": "address"
        },
        {
          "internalType": "bool",
          "name": "approved",
          "type": "bool"
        }
      ],
      "name": "setApprovalForAll",
      "outputs": [],
      "stateMutability": "nonpayable",
      "type": "function"
    },
    {
      "inputs": [
        {
          "internalType": "bytes4",
          "name": "interfaceId",
          "type": "bytes4"
        }
      ],
      "name": "supportsInterface",
      "outputs": [
        {
          "internalType": "bool",
          "name": "",
          "type": "bool"
        }
      ],
      "stateMutability": "view",
      "type": "function"
    },
    {
      "inputs": [],
      "name": "symbol",
      "outputs": [
        {
          "internalType": "string",
          "name": "",
          "type": "string"
        }
      ],
      "stateMutability": "view",
      "type": "function"
    },
    {
      "inputs": [],
      "name": "tokenAddress",
      "outputs": [
        {
          "internalType": "address",
          "name": "",
          "type": "address"
        }
      ],
      "stateMutability": "view",
      "type": "function"
    },
    {
      "inputs": [
        {
          "internalType": "uint256",
          "name": "tokenId",
          "type": "uint256"
        }
      ],
      "name": "tokenURI",
      "outputs": [
        {
          "internalType": "string",
          "name": "",
          "type": "string"
        }
      ],
      "stateMutability": "view",
      "type": "function"
    },
    {
      "inputs": [
        {
          "internalType": "address",
          "name": "from",
          "type": "address"
        },
        {
          "internalType": "address",
          "name": "to",
          "type": "address"
        },
        {
          "internalType": "uint256",
          "name": "tokenId",
          "type": "uint256"
        }
      ],
      "name": "transfer",
      "outputs": [],
      "stateMutability": "nonpayable",
      "type": "function"
    },
    {
      "inputs": [
        {
          "internalType": "address",
          "name": "from",
          "type": "address"
        },
        {
          "internalType": "address",
          "name": "to",
          "type": "address"
        },
        {
          "internalType": "uint256",
          "name": "tokenId",
          "type": "uint256"
        }
      ],
      "name": "transferFrom",
      "outputs": [],
      "stateMutability": "nonpayable",
      "type": "function"
    }
  ],
  "bytecode": "0x60806040523480156200001157600080fd5b50604051620040153803806200401583398181016040528101906200003791906200017b565b6040518060400160405280600d81526020017f54334d61726b6574706c616365000000000000000000000000000000000000008152506040518060400160405280600281526020017f54330000000000000000000000000000000000000000000000000000000000008152508160009081620000b4919062000427565b508060019081620000c6919062000427565b50505080600860006101000a81548173ffffffffffffffffffffffffffffffffffffffff021916908373ffffffffffffffffffffffffffffffffffffffff160217905550506200050e565b600080fd5b600073ffffffffffffffffffffffffffffffffffffffff82169050919050565b6000620001438262000116565b9050919050565b620001558162000136565b81146200016157600080fd5b50565b60008151905062000175816200014a565b92915050565b60006020828403121562000194576200019362000111565b5b6000620001a48482850162000164565b91505092915050565b600081519050919050565b7f4e487b7100000000000000000000000000000000000000000000000000000000600052604160045260246000fd5b7f4e487b7100000000000000000000000000000000000000000000000000000000600052602260045260246000fd5b600060028204905060018216806200022f57607f821691505b602082108103620002455762000244620001e7565b5b50919050565b60008190508160005260206000209050919050565b60006020601f8301049050919050565b600082821b905092915050565b600060088302620002af7fffffffffffffffffffffffffffffffffffffffffffffffffffffffffffffffff8262000270565b620002bb868362000270565b95508019841693508086168417925050509392505050565b6000819050919050565b6000819050919050565b60006200030862000302620002fc84620002d3565b620002dd565b620002d3565b9050919050565b6000819050919050565b6200032483620002e7565b6200033c62000333826200030f565b8484546200027d565b825550505050565b600090565b6200035362000344565b6200036081848462000319565b505050565b5b8181101562000388576200037c60008262000349565b60018101905062000366565b5050565b601f821115620003d757620003a1816200024b565b620003ac8462000260565b81016020851015620003bc578190505b620003d4620003cb8562000260565b83018262000365565b50505b505050565b600082821c905092915050565b6000620003fc60001984600802620003dc565b1980831691505092915050565b6000620004178383620003e9565b9150826002028217905092915050565b6200043282620001ad565b67ffffffffffffffff8111156200044e576200044d620001b8565b5b6200045a825462000216565b620004678282856200038c565b600060209050601f8311600181146200049f57600084156200048a578287015190505b62000496858262000409565b86555062000506565b601f198416620004af866200024b565b60005b82811015620004d957848901518255600182019150602085019450602081019050620004b2565b86831015620004f95784890151620004f5601f891682620003e9565b8355505b6001600288020188555050505b505050505050565b613af7806200051e6000396000f3fe608060405234801561001057600080fd5b50600436106101425760003560e01c8063a22cb465116100b8578063c87b56dd1161007c578063c87b56dd14610373578063d204c45e146103a3578063d6febde8146103bf578063e52d86e3146103db578063e985e9c51461040b578063fe8723e11461043b57610142565b8063a22cb465146102d1578063aa46a400146102ed578063b88d4fde1461030b578063bdc7ec4d14610327578063beabacc81461035757610142565b806342842e0e1161010a57806342842e0e146101fd578063479ad4c3146102195780636352211e1461023557806370a082311461026557806395d89b41146102955780639d76ea58146102b357610142565b806301ffc9a71461014757806306fdde0314610177578063081812fc14610195578063095ea7b3146101c557806323b872dd146101e1575b600080fd5b610161600480360381019061015c919061244a565b610457565b60405161016e9190612492565b60405180910390f35b61017f610469565b60405161018c919061253d565b60405180910390f35b6101af60048036038101906101aa9190612595565b6104fb565b6040516101bc9190612603565b60405180910390f35b6101df60048036038101906101da919061264a565b610541565b005b6101fb60048036038101906101f6919061268a565b610658565b005b6102176004803603810190610212919061268a565b6106b8565b005b610233600480360381019061022e9190612595565b6106d8565b005b61024f600480360381019061024a9190612595565b6107f8565b60405161025c9190612603565b60405180910390f35b61027f600480360381019061027a91906126dd565b61087e565b60405161028c9190612719565b60405180910390f35b61029d610935565b6040516102aa919061253d565b60405180910390f35b6102bb6109c7565b6040516102c89190612603565b60405180910390f35b6102eb60048036038101906102e69190612760565b6109ed565b005b6102f5610a03565b6040516103029190612719565b60405180910390f35b610325600480360381019061032091906128d5565b610a0f565b005b610341600480360381019061033c9190612595565b610a71565b60405161034e9190612719565b60405180910390f35b610371600480360381019061036c919061268a565b610a89565b005b61038d60048036038101906103889190612595565b610b08565b60405161039a919061253d565b60405180910390f35b6103bd60048036038101906103b891906129f9565b610b1a565b005b6103d960048036038101906103d49190612a55565b610c4e565b005b6103f560048036038101906103f09190612595565b611073565b6040516104029190612492565b60405180910390f35b61042560048036038101906104209190612a95565b611093565b6040516104329190612492565b60405180910390f35b61045560048036038101906104509190612a55565b611127565b005b60006104628261128b565b9050919050565b60606000805461047890612b04565b80601f01602080910402602001604051908101604052809291908181526020018280546104a490612b04565b80156104f15780601f106104c6576101008083540402835291602001916104f1565b820191906000526020600020905b8154815290600101906020018083116104d457829003601f168201915b5050505050905090565b6000610506826112ec565b6004600083815260200190815260200160002060009054906101000a900473ffffffffffffffffffffffffffffffffffffffff169050919050565b600061054c826107f8565b90508073ffffffffffffffffffffffffffffffffffffffff168373ffffffffffffffffffffffffffffffffffffffff16036105bc576040517f08c379a00000000000000000000000000000000000000000000000000000000081526004016105b390612ba7565b60405180910390fd5b8073ffffffffffffffffffffffffffffffffffffffff166105db611337565b73ffffffffffffffffffffffffffffffffffffffff16148061060a575061060981610604611337565b611093565b5b610649576040517f08c379a000000000000000000000000000000000000000000000000000000000815260040161064090612c39565b60405180910390fd5b610653838361133f565b505050565b610669610663611337565b826113f8565b6106a8576040517f08c379a000000000000000000000000000000000000000000000000000000000815260040161069f90612ccb565b60405180910390fd5b6106b383838361148d565b505050565b6106d383838360405180602001604052806000815250610a0f565b505050565b6106e1816107f8565b73ffffffffffffffffffffffffffffffffffffffff163373ffffffffffffffffffffffffffffffffffffffff161461074e576040517f08c379a000000000000000000000000000000000000000000000000000000000815260040161074590612d37565b60405180910390fd5b60006009600083815260200190815260200160002060006101000a81548160ff021916908315150217905550610785600082610541565b6000600a600083815260200190815260200160002081905550803373ffffffffffffffffffffffffffffffffffffffff167f27fc54b42422579c3bd37212f803e5e92cda5cde0416b7fd785314a1d2b3402f6107e084610b08565b6040516107ed919061253d565b60405180910390a350565b60008061080483611786565b9050600073ffffffffffffffffffffffffffffffffffffffff168173ffffffffffffffffffffffffffffffffffffffff1603610875576040517f08c379a000000000000000000000000000000000000000000000000000000000815260040161086c90612da3565b60405180910390fd5b80915050919050565b60008073ffffffffffffffffffffffffffffffffffffffff168273ffffffffffffffffffffffffffffffffffffffff16036108ee576040517f08c379a00000000000000000000000000000000000000000000000000000000081526004016108e590612e35565b60405180910390fd5b600360008373ffffffffffffffffffffffffffffffffffffffff1673ffffffffffffffffffffffffffffffffffffffff168152602001908152602001600020549050919050565b60606001805461094490612b04565b80601f016020809104026020016040519081016040528092919081815260200182805461097090612b04565b80156109bd5780601f10610992576101008083540402835291602001916109bd565b820191906000526020600020905b8154815290600101906020018083116109a057829003601f168201915b5050505050905090565b600860009054906101000a900473ffffffffffffffffffffffffffffffffffffffff1681565b6109ff6109f8611337565b83836117c3565b5050565b60078060000154905081565b610a20610a1a611337565b836113f8565b610a5f576040517f08c379a0000000000000000000000000000000000000000000000000000000008152600401610a5690612ccb565b60405180910390fd5b610a6b8484848461192f565b50505050565b600a6020528060005260406000206000915090505481565b610a94838383610658565b8173ffffffffffffffffffffffffffffffffffffffff168373ffffffffffffffffffffffffffffffffffffffff167f24e0cf40e483a4df7f4f68aadbda921dbf3791902ab682e243c843ae0651acd5610aec84610b08565b84604051610afb929190612e55565b60405180910390a3505050565b6060610b138261198b565b9050919050565b600073ffffffffffffffffffffffffffffffffffffffff168273ffffffffffffffffffffffffffffffffffffffff1603610b89576040517f08c379a0000000000000000000000000000000000000000000000000000000008152600401610b8090612ed1565b60405180910390fd5b6000815103610bcd576040517f08c379a0000000000000000000000000000000000000000000000000000000008152600401610bc490612f3d565b60405180910390fd5b610bd76007611a9d565b6000610be36007611ab3565b9050610bef8382611ac1565b610bf98183611adf565b8273ffffffffffffffffffffffffffffffffffffffff167fd54170cdaa7d461c1c89ad18234ca0f427e1d57b9297691789cd044c2e3bc89c8383604051610c41929190612e55565b60405180910390a2505050565b6009600083815260200190815260200160002060009054906101000a900460ff16610cae576040517f08c379a0000000000000000000000000000000000000000000000000000000008152600401610ca590612fa9565b60405180910390fd5b610cb7826107f8565b73ffffffffffffffffffffffffffffffffffffffff163373ffffffffffffffffffffffffffffffffffffffff1603610d24576040517f08c379a0000000000000000000000000000000000000000000000000000000008152600401610d1b90613015565b60405180910390fd5b600a6000838152602001908152602001600020548114610d79576040517f08c379a0000000000000000000000000000000000000000000000000000000008152600401610d70906130a7565b60405180910390fd5b6000610d84836107f8565b905060003390506000600860009054906101000a900473ffffffffffffffffffffffffffffffffffffffff16905060008173ffffffffffffffffffffffffffffffffffffffff1663dd62ed3e84306040518363ffffffff1660e01b8152600401610def9291906130c7565b602060405180830381865afa158015610e0c573d6000803e3d6000fd5b505050506040513d601f19601f82011682018060405250810190610e309190613105565b905084811015610e75576040517f08c379a0000000000000000000000000000000000000000000000000000000008152600401610e6c906131a4565b60405180910390fd5b8173ffffffffffffffffffffffffffffffffffffffff166323b872dd8486886040518463ffffffff1660e01b8152600401610eb2939291906131c4565b6020604051808303816000875af1158015610ed1573d6000803e3d6000fd5b505050506040513d601f19601f82011682018060405250810190610ef59190613210565b610f34576040517f08c379a0000000000000000000000000000000000000000000000000000000008152600401610f2b90613289565b60405180910390fd5b3073ffffffffffffffffffffffffffffffffffffffff166342842e0e8585896040518463ffffffff1660e01b8152600401610f71939291906131c4565b600060405180830381600087803b158015610f8b57600080fd5b505af1158015610f9f573d6000803e3d6000fd5b5050505060006009600088815260200190815260200160002060006101000a81548160ff021916908315150217905550858373ffffffffffffffffffffffffffffffffffffffff168573ffffffffffffffffffffffffffffffffffffffff167fc9c9809a51d1c5acc3d977041e817146e40ebe3557175415da745224964af17a6110288a610b08565b600a60008c81526020019081526020016000205460405161104a929190612e55565b60405180910390a46000600a600088815260200190815260200160002081905550505050505050565b60096020528060005260406000206000915054906101000a900460ff1681565b6000600560008473ffffffffffffffffffffffffffffffffffffffff1673ffffffffffffffffffffffffffffffffffffffff16815260200190815260200160002060008373ffffffffffffffffffffffffffffffffffffffff1673ffffffffffffffffffffffffffffffffffffffff16815260200190815260200160002060009054906101000a900460ff16905092915050565b611130826107f8565b73ffffffffffffffffffffffffffffffffffffffff163373ffffffffffffffffffffffffffffffffffffffff161461119d576040517f08c379a000000000000000000000000000000000000000000000000000000000815260040161119490612d37565b60405180910390fd5b600081116111e0576040517f08c379a00000000000000000000000000000000000000000000000000000000081526004016111d7906132f5565b60405180910390fd5b60016009600084815260200190815260200160002060006101000a81548160ff02191690831515021790555080600a60008481526020019081526020016000208190555061122e3083610541565b813373ffffffffffffffffffffffffffffffffffffffff167fceda736fe454bc686fef4bbd0868b2a138fe23584e8ce98192cfd4d1436567cf8361127186610b08565b60405161127f929190613315565b60405180910390a35050565b6000634906490660e01b7bffffffffffffffffffffffffffffffffffffffffffffffffffffffff1916827bffffffffffffffffffffffffffffffffffffffffffffffffffffffff191614806112e557506112e482611b83565b5b9050919050565b6112f581611c65565b611334576040517f08c379a000000000000000000000000000000000000000000000000000000000815260040161132b90612da3565b60405180910390fd5b50565b600033905090565b816004600083815260200190815260200160002060006101000a81548173ffffffffffffffffffffffffffffffffffffffff021916908373ffffffffffffffffffffffffffffffffffffffff160217905550808273ffffffffffffffffffffffffffffffffffffffff166113b2836107f8565b73ffffffffffffffffffffffffffffffffffffffff167f8c5be1e5ebec7d5bd14f71427d1e84f3dd0314c0f7b2291e5b200ac8c7c3b92560405160405180910390a45050565b600080611404836107f8565b90508073ffffffffffffffffffffffffffffffffffffffff168473ffffffffffffffffffffffffffffffffffffffff16148061144657506114458185611093565b5b8061148457508373ffffffffffffffffffffffffffffffffffffffff1661146c846104fb565b73ffffffffffffffffffffffffffffffffffffffff16145b91505092915050565b8273ffffffffffffffffffffffffffffffffffffffff166114ad826107f8565b73ffffffffffffffffffffffffffffffffffffffff1614611503576040517f08c379a00000000000000000000000000000000000000000000000000000000081526004016114fa906133b7565b60405180910390fd5b600073ffffffffffffffffffffffffffffffffffffffff168273ffffffffffffffffffffffffffffffffffffffff1603611572576040517f08c379a000000000000000000000000000000000000000000000000000000000815260040161156990613449565b60405180910390fd5b61157f8383836001611ca6565b8273ffffffffffffffffffffffffffffffffffffffff1661159f826107f8565b73ffffffffffffffffffffffffffffffffffffffff16146115f5576040517f08c379a00000000000000000000000000000000000000000000000000000000081526004016115ec906133b7565b60405180910390fd5b6004600082815260200190815260200160002060006101000a81549073ffffffffffffffffffffffffffffffffffffffff02191690556001600360008573ffffffffffffffffffffffffffffffffffffffff1673ffffffffffffffffffffffffffffffffffffffff168152602001908152602001600020600082825403925050819055506001600360008473ffffffffffffffffffffffffffffffffffffffff1673ffffffffffffffffffffffffffffffffffffffff16815260200190815260200160002060008282540192505081905550816002600083815260200190815260200160002060006101000a81548173ffffffffffffffffffffffffffffffffffffffff021916908373ffffffffffffffffffffffffffffffffffffffff160217905550808273ffffffffffffffffffffffffffffffffffffffff168473ffffffffffffffffffffffffffffffffffffffff167fddf252ad1be2c89b69c2b068fc378daa952ba7f163c4a11628f55a4df523b3ef60405160405180910390a46117818383836001611cac565b505050565b60006002600083815260200190815260200160002060009054906101000a900473ffffffffffffffffffffffffffffffffffffffff169050919050565b8173ffffffffffffffffffffffffffffffffffffffff168373ffffffffffffffffffffffffffffffffffffffff1603611831576040517f08c379a0000000000000000000000000000000000000000000000000000000008152600401611828906134b5565b60405180910390fd5b80600560008573ffffffffffffffffffffffffffffffffffffffff1673ffffffffffffffffffffffffffffffffffffffff16815260200190815260200160002060008473ffffffffffffffffffffffffffffffffffffffff1673ffffffffffffffffffffffffffffffffffffffff16815260200190815260200160002060006101000a81548160ff0219169083151502179055508173ffffffffffffffffffffffffffffffffffffffff168373ffffffffffffffffffffffffffffffffffffffff167f17307eab39ab6107e8899845ad3d59bd9653f200f220920489ca2b5937696c31836040516119229190612492565b60405180910390a3505050565b61193a84848461148d565b61194684848484611cb2565b611985576040517f08c379a000000000000000000000000000000000000000000000000000000000815260040161197c90613547565b60405180910390fd5b50505050565b6060611996826112ec565b60006006600084815260200190815260200160002080546119b690612b04565b80601f01602080910402602001604051908101604052809291908181526020018280546119e290612b04565b8015611a2f5780601f10611a0457610100808354040283529160200191611a2f565b820191906000526020600020905b815481529060010190602001808311611a1257829003601f168201915b505050505090506000611a40611e39565b90506000815103611a55578192505050611a98565b600082511115611a8a578082604051602001611a729291906135a3565b60405160208183030381529060405292505050611a98565b611a9384611e50565b925050505b919050565b6001816000016000828254019250508190555050565b600081600001549050919050565b611adb828260405180602001604052806000815250611eb8565b5050565b611ae882611c65565b611b27576040517f08c379a0000000000000000000000000000000000000000000000000000000008152600401611b1e90613639565b60405180910390fd5b80600660008481526020019081526020016000209081611b479190613805565b507ff8e1a15aba9398e019f0b49df1a4fde98ee17ae345cb5f6b5e2c27f5033e8ce782604051611b779190612719565b60405180910390a15050565b60007f80ac58cd000000000000000000000000000000000000000000000000000000007bffffffffffffffffffffffffffffffffffffffffffffffffffffffff1916827bffffffffffffffffffffffffffffffffffffffffffffffffffffffff19161480611c4e57507f5b5e139f000000000000000000000000000000000000000000000000000000007bffffffffffffffffffffffffffffffffffffffffffffffffffffffff1916827bffffffffffffffffffffffffffffffffffffffffffffffffffffffff1916145b80611c5e5750611c5d82611f13565b5b9050919050565b60008073ffffffffffffffffffffffffffffffffffffffff16611c8783611786565b73ffffffffffffffffffffffffffffffffffffffff1614159050919050565b50505050565b50505050565b6000611cd38473ffffffffffffffffffffffffffffffffffffffff16611f7d565b15611e2c578373ffffffffffffffffffffffffffffffffffffffff1663150b7a02611cfc611337565b8786866040518563ffffffff1660e01b8152600401611d1e949392919061392c565b6020604051808303816000875af1925050508015611d5a57506040513d601f19601f82011682018060405250810190611d57919061398d565b60015b611ddc573d8060008114611d8a576040519150601f19603f3d011682016040523d82523d6000602084013e611d8f565b606091505b506000815103611dd4576040517f08c379a0000000000000000000000000000000000000000000000000000000008152600401611dcb90613547565b60405180910390fd5b805181602001fd5b63150b7a0260e01b7bffffffffffffffffffffffffffffffffffffffffffffffffffffffff1916817bffffffffffffffffffffffffffffffffffffffffffffffffffffffff191614915050611e31565b600190505b949350505050565b606060405180602001604052806000815250905090565b6060611e5b826112ec565b6000611e65611e39565b90506000815111611e855760405180602001604052806000815250611eb0565b80611e8f84611fa0565b604051602001611ea09291906135a3565b6040516020818303038152906040525b915050919050565b611ec2838361206e565b611ecf6000848484611cb2565b611f0e576040517f08c379a0000000000000000000000000000000000000000000000000000000008152600401611f0590613547565b60405180910390fd5b505050565b60007f01ffc9a7000000000000000000000000000000000000000000000000000000007bffffffffffffffffffffffffffffffffffffffffffffffffffffffff1916827bffffffffffffffffffffffffffffffffffffffffffffffffffffffff1916149050919050565b6000808273ffffffffffffffffffffffffffffffffffffffff163b119050919050565b606060006001611faf8461228b565b01905060008167ffffffffffffffff811115611fce57611fcd6127aa565b5b6040519080825280601f01601f1916602001820160405280156120005781602001600182028036833780820191505090505b509050600082602001820190505b600115612063578080600190039150507f3031323334353637383961626364656600000000000000000000000000000000600a86061a8153600a8581612057576120566139ba565b5b0494506000850361200e575b819350505050919050565b600073ffffffffffffffffffffffffffffffffffffffff168273ffffffffffffffffffffffffffffffffffffffff16036120dd576040517f08c379a00000000000000000000000000000000000000000000000000000000081526004016120d490613a35565b60405180910390fd5b6120e681611c65565b15612126576040517f08c379a000000000000000000000000000000000000000000000000000000000815260040161211d90613aa1565b60405180910390fd5b612134600083836001611ca6565b61213d81611c65565b1561217d576040517f08c379a000000000000000000000000000000000000000000000000000000000815260040161217490613aa1565b60405180910390fd5b6001600360008473ffffffffffffffffffffffffffffffffffffffff1673ffffffffffffffffffffffffffffffffffffffff16815260200190815260200160002060008282540192505081905550816002600083815260200190815260200160002060006101000a81548173ffffffffffffffffffffffffffffffffffffffff021916908373ffffffffffffffffffffffffffffffffffffffff160217905550808273ffffffffffffffffffffffffffffffffffffffff16600073ffffffffffffffffffffffffffffffffffffffff167fddf252ad1be2c89b69c2b068fc378daa952ba7f163c4a11628f55a4df523b3ef60405160405180910390a4612287600083836001611cac565b5050565b600080600090507a184f03e93ff9f4daa797ed6e38ed64bf6a1f01000000000000000083106122e9577a184f03e93ff9f4daa797ed6e38ed64bf6a1f01000000000000000083816122df576122de6139ba565b5b0492506040810190505b6d04ee2d6d415b85acef81000000008310612326576d04ee2d6d415b85acef8100000000838161231c5761231b6139ba565b5b0492506020810190505b662386f26fc10000831061235557662386f26fc10000838161234b5761234a6139ba565b5b0492506010810190505b6305f5e100831061237e576305f5e1008381612374576123736139ba565b5b0492506008810190505b61271083106123a3576127108381612399576123986139ba565b5b0492506004810190505b606483106123c657606483816123bc576123bb6139ba565b5b0492506002810190505b600a83106123d5576001810190505b80915050919050565b6000604051905090565b600080fd5b600080fd5b60007fffffffff0000000000000000000000000000000000000000000000000000000082169050919050565b612427816123f2565b811461243257600080fd5b50565b6000813590506124448161241e565b92915050565b6000602082840312156124605761245f6123e8565b5b600061246e84828501612435565b91505092915050565b60008115159050919050565b61248c81612477565b82525050565b60006020820190506124a76000830184612483565b92915050565b600081519050919050565b600082825260208201905092915050565b60005b838110156124e75780820151818401526020810190506124cc565b60008484015250505050565b6000601f19601f8301169050919050565b600061250f826124ad565b61251981856124b8565b93506125298185602086016124c9565b612532816124f3565b840191505092915050565b600060208201905081810360008301526125578184612504565b905092915050565b6000819050919050565b6125728161255f565b811461257d57600080fd5b50565b60008135905061258f81612569565b92915050565b6000602082840312156125ab576125aa6123e8565b5b60006125b984828501612580565b91505092915050565b600073ffffffffffffffffffffffffffffffffffffffff82169050919050565b60006125ed826125c2565b9050919050565b6125fd816125e2565b82525050565b600060208201905061261860008301846125f4565b92915050565b612627816125e2565b811461263257600080fd5b50565b6000813590506126448161261e565b92915050565b60008060408385031215612661576126606123e8565b5b600061266f85828601612635565b925050602061268085828601612580565b9150509250929050565b6000806000606084860312156126a3576126a26123e8565b5b60006126b186828701612635565b93505060206126c286828701612635565b92505060406126d386828701612580565b9150509250925092565b6000602082840312156126f3576126f26123e8565b5b600061270184828501612635565b91505092915050565b6127138161255f565b82525050565b600060208201905061272e600083018461270a565b92915050565b61273d81612477565b811461274857600080fd5b50565b60008135905061275a81612734565b92915050565b60008060408385031215612777576127766123e8565b5b600061278585828601612635565b92505060206127968582860161274b565b9150509250929050565b600080fd5b600080fd5b7f4e487b7100000000000000000000000000000000000000000000000000000000600052604160045260246000fd5b6127e2826124f3565b810181811067ffffffffffffffff82111715612801576128006127aa565b5b80604052505050565b60006128146123de565b905061282082826127d9565b919050565b600067ffffffffffffffff8211156128405761283f6127aa565b5b612849826124f3565b9050602081019050919050565b82818337600083830152505050565b600061287861287384612825565b61280a565b905082815260208101848484011115612894576128936127a5565b5b61289f848285612856565b509392505050565b600082601f8301126128bc576128bb6127a0565b5b81356128cc848260208601612865565b91505092915050565b600080600080608085870312156128ef576128ee6123e8565b5b60006128fd87828801612635565b945050602061290e87828801612635565b935050604061291f87828801612580565b925050606085013567ffffffffffffffff8111156129405761293f6123ed565b5b61294c878288016128a7565b91505092959194509250565b600067ffffffffffffffff821115612973576129726127aa565b5b61297c826124f3565b9050602081019050919050565b600061299c61299784612958565b61280a565b9050828152602081018484840111156129b8576129b76127a5565b5b6129c3848285612856565b509392505050565b600082601f8301126129e0576129df6127a0565b5b81356129f0848260208601612989565b91505092915050565b60008060408385031215612a1057612a0f6123e8565b5b6000612a1e85828601612635565b925050602083013567ffffffffffffffff811115612a3f57612a3e6123ed565b5b612a4b858286016129cb565b9150509250929050565b60008060408385031215612a6c57612a6b6123e8565b5b6000612a7a85828601612580565b9250506020612a8b85828601612580565b9150509250929050565b60008060408385031215612aac57612aab6123e8565b5b6000612aba85828601612635565b9250506020612acb85828601612635565b9150509250929050565b7f4e487b7100000000000000000000000000000000000000000000000000000000600052602260045260246000fd5b60006002820490506001821680612b1c57607f821691505b602082108103612b2f57612b2e612ad5565b5b50919050565b7f4552433732313a20617070726f76616c20746f2063757272656e74206f776e6560008201527f7200000000000000000000000000000000000000000000000000000000000000602082015250565b6000612b916021836124b8565b9150612b9c82612b35565b604082019050919050565b60006020820190508181036000830152612bc081612b84565b9050919050565b7f4552433732313a20617070726f76652063616c6c6572206973206e6f7420746f60008201527f6b656e206f776e6572206f7220617070726f76656420666f7220616c6c000000602082015250565b6000612c23603d836124b8565b9150612c2e82612bc7565b604082019050919050565b60006020820190508181036000830152612c5281612c16565b9050919050565b7f4552433732313a2063616c6c6572206973206e6f7420746f6b656e206f776e6560008201527f72206f7220617070726f76656400000000000000000000000000000000000000602082015250565b6000612cb5602d836124b8565b9150612cc082612c59565b604082019050919050565b60006020820190508181036000830152612ce481612ca8565b9050919050565b7f596f7520617265206e6f7420746865206f776e6572206f6620546f6b656e4964600082015250565b6000612d216020836124b8565b9150612d2c82612ceb565b602082019050919050565b60006020820190508181036000830152612d5081612d14565b9050919050565b7f4552433732313a20696e76616c696420746f6b656e2049440000000000000000600082015250565b6000612d8d6018836124b8565b9150612d9882612d57565b602082019050919050565b60006020820190508181036000830152612dbc81612d80565b9050919050565b7f4552433732313a2061646472657373207a65726f206973206e6f74206120766160008201527f6c6964206f776e65720000000000000000000000000000000000000000000000602082015250565b6000612e1f6029836124b8565b9150612e2a82612dc3565b604082019050919050565b60006020820190508181036000830152612e4e81612e12565b9050919050565b60006040820190508181036000830152612e6f8185612504565b9050612e7e602083018461270a565b9392505050565b7f43616e6e6f74206d696e7420746f207a65726f20416464726573730000000000600082015250565b6000612ebb601b836124b8565b9150612ec682612e85565b602082019050919050565b60006020820190508181036000830152612eea81612eae565b9050919050565b7f43616e6e6f742073657420616e20656d70747920555249000000000000000000600082015250565b6000612f276017836124b8565b9150612f3282612ef1565b602082019050919050565b60006020820190508181036000830152612f5681612f1a565b9050919050565b7f4e4654206973206e6f74206c697374656420666f722073616c65000000000000600082015250565b6000612f93601a836124b8565b9150612f9e82612f5d565b602082019050919050565b60006020820190508181036000830152612fc281612f86565b9050919050565b7f596f752063616e6e6f742062757920796f7572206f776e20546f6b656e000000600082015250565b6000612fff601d836124b8565b915061300a82612fc9565b602082019050919050565b6000602082019050818103600083015261302e81612ff2565b9050919050565b7f596f7520646f6e2774206861766520656e6f75676820546f6b656e7320746f2060008201527f6275792069740000000000000000000000000000000000000000000000000000602082015250565b60006130916026836124b8565b915061309c82613035565b604082019050919050565b600060208201905081810360008301526130c081613084565b9050919050565b60006040820190506130dc60008301856125f4565b6130e960208301846125f4565b9392505050565b6000815190506130ff81612569565b92915050565b60006020828403121561311b5761311a6123e8565b5b6000613129848285016130f0565b91505092915050565b7f596f75206d75737420617070726f76652074686520636f6e747261637420746f60008201527f207370656e6420796f757220746f6b656e730000000000000000000000000000602082015250565b600061318e6032836124b8565b915061319982613132565b604082019050919050565b600060208201905081810360008301526131bd81613181565b9050919050565b60006060820190506131d960008301866125f4565b6131e660208301856125f4565b6131f3604083018461270a565b949350505050565b60008151905061320a81612734565b92915050565b600060208284031215613226576132256123e8565b5b6000613234848285016131fb565b91505092915050565b7f546f6b656e207472616e73666572206661696c65640000000000000000000000600082015250565b60006132736015836124b8565b915061327e8261323d565b602082019050919050565b600060208201905081810360008301526132a281613266565b9050919050565b7f50726963652063616e6e6f742062652073657420746f207a65726f0000000000600082015250565b60006132df601b836124b8565b91506132ea826132a9565b602082019050919050565b6000602082019050818103600083015261330e816132d2565b9050919050565b600060408201905061332a600083018561270a565b818103602083015261333c8184612504565b90509392505050565b7f4552433732313a207472616e736665722066726f6d20696e636f72726563742060008201527f6f776e6572000000000000000000000000000000000000000000000000000000602082015250565b60006133a16025836124b8565b91506133ac82613345565b604082019050919050565b600060208201905081810360008301526133d081613394565b9050919050565b7f4552433732313a207472616e7366657220746f20746865207a65726f2061646460008201527f7265737300000000000000000000000000000000000000000000000000000000602082015250565b60006134336024836124b8565b915061343e826133d7565b604082019050919050565b6000602082019050818103600083015261346281613426565b9050919050565b7f4552433732313a20617070726f766520746f2063616c6c657200000000000000600082015250565b600061349f6019836124b8565b91506134aa82613469565b602082019050919050565b600060208201905081810360008301526134ce81613492565b9050919050565b7f4552433732313a207472616e7366657220746f206e6f6e20455243373231526560008201527f63656976657220696d706c656d656e7465720000000000000000000000000000602082015250565b60006135316032836124b8565b915061353c826134d5565b604082019050919050565b6000602082019050818103600083015261356081613524565b9050919050565b600081905092915050565b600061357d826124ad565b6135878185613567565b93506135978185602086016124c9565b80840191505092915050565b60006135af8285613572565b91506135bb8284613572565b91508190509392505050565b7f45524337323155524953746f726167653a2055524920736574206f66206e6f6e60008201527f6578697374656e7420746f6b656e000000000000000000000000000000000000602082015250565b6000613623602e836124b8565b915061362e826135c7565b604082019050919050565b6000602082019050818103600083015261365281613616565b9050919050565b60008190508160005260206000209050919050565b60006020601f8301049050919050565b600082821b905092915050565b6000600883026136bb7fffffffffffffffffffffffffffffffffffffffffffffffffffffffffffffffff8261367e565b6136c5868361367e565b95508019841693508086168417925050509392505050565b6000819050919050565b60006137026136fd6136f88461255f565b6136dd565b61255f565b9050919050565b6000819050919050565b61371c836136e7565b61373061372882613709565b84845461368b565b825550505050565b600090565b613745613738565b613750818484613713565b505050565b5b818110156137745761376960008261373d565b600181019050613756565b5050565b601f8211156137b95761378a81613659565b6137938461366e565b810160208510156137a2578190505b6137b66137ae8561366e565b830182613755565b50505b505050565b600082821c905092915050565b60006137dc600019846008026137be565b1980831691505092915050565b60006137f583836137cb565b9150826002028217905092915050565b61380e826124ad565b67ffffffffffffffff811115613827576138266127aa565b5b6138318254612b04565b61383c828285613778565b600060209050601f83116001811461386f576000841561385d578287015190505b61386785826137e9565b8655506138cf565b601f19841661387d86613659565b60005b828110156138a557848901518255600182019150602085019450602081019050613880565b868310156138c257848901516138be601f8916826137cb565b8355505b6001600288020188555050505b505050505050565b600081519050919050565b600082825260208201905092915050565b60006138fe826138d7565b61390881856138e2565b93506139188185602086016124c9565b613921816124f3565b840191505092915050565b600060808201905061394160008301876125f4565b61394e60208301866125f4565b61395b604083018561270a565b818103606083015261396d81846138f3565b905095945050505050565b6000815190506139878161241e565b92915050565b6000602082840312156139a3576139a26123e8565b5b60006139b184828501613978565b91505092915050565b7f4e487b7100000000000000000000000000000000000000000000000000000000600052601260045260246000fd5b7f4552433732313a206d696e7420746f20746865207a65726f2061646472657373600082015250565b6000613a1f6020836124b8565b9150613a2a826139e9565b602082019050919050565b60006020820190508181036000830152613a4e81613a12565b9050919050565b7f4552433732313a20746f6b656e20616c7265616479206d696e74656400000000600082015250565b6000613a8b601c836124b8565b9150613a9682613a55565b602082019050919050565b60006020820190508181036000830152613aba81613a7e565b905091905056fea264697066735822122029a0abdb5fe94a4082fbc31968f9c6dc862af5a8cc149c8e5e7f9d417a8bca5664736f6c63430008130033",
  "linkReferences": {},
  "deployedLinkReferences": {}
}